:020000040800F2
:100000000028002075050008DD030008E303000850
:10001000E9030008EF030008F503000800000000F2
:10002000000000000000000000000000FB030008CA
:100030000704000800000000130400081F04000863
:10004000BD050008BD050008BD050008BD05000888
:10005000BD050008BD050008BD050008BD05000878
:10006000BD050008BD050008BD050008BD05000868
:10007000BD050008BD050008BD050008BD05000858
:10008000BD050008BD050008BD050008BD05000848
:10009000BD050008BD050008BD050008BD05000838
:1000A000BD050008BD050008BD050008BD05000828
:1000B000BD050008BD05000800000000BD050008E2
:1000C000BD0500080000000000000000BD0500089C
:1000D00000000000BD050008BD050008000000008C
:1000E000BD050008BD050008BD05000800000000B2
:1000F0000000000000000000000000000000000000
:0C01000000000000000000005FF808F1A3
:10010C0010B5054C237833B9044B13B10448AFF345
:10011C0000800123237010BD70000020000000003F
:10012C008827000808B5034B1BB103490348AFF3FC
:10013C00008008BD00000000740000208827000823
:10014C0080B582B000AF7860C7F800C07B68013B17
:10015C000B2B6BD801A252F823F000BF99010008B9
:10016C00A5010008B1010008BD010008C901000883
:10017C00D7010008E5010008F3010008010200089E
:10018C000F0200081D0200082B020008002210219B
:10019C00284800F0F3FC49E000222021254800F01B
:1001AC00EDFC43E000224021224800F0E7FC3DE05A
:1001BC00002280211F4800F0E1FC37E000224FF4C0
:1001CC0080711C4800F0DAFC30E000224FF4007122
:1001DC00184800F0D3FC29E000224FF48061154848
:1001EC0000F0CCFC22E000224FF40061114800F03A
:1001FC00C5FC1BE000224FF480510E4800F0BEFC01
:10020C0014E000224FF400510A4800F0B7FC0DE056
:10021C0000224FF48041074800F0B0FC06E00022B9
:10022C004FF40041034800F0A9FC00BF00BF0837A1
:10023C00BD4680BD0008014080B582B000AF07F11B
:10024C0010037B6000F0B6F900F01AF800F054F8D7
:10025C003B461946094801F0B7F83B68002B08DB10
:10026C003B680B2B05DC3B683A1D94461846FFF7A0
:10027C0067FF4FF47A7000F0FFF9E9E7A027000858
:10028C0080B590B000AF07F1180328220021184662
:10029C0001F092F83B1D00221A605A609A60DA60F5
:1002AC001A610223BB610123BB621023FB62002392
:1002BC007B6307F11803184600F078FC0346002B0B
:1002CC0001D000F04DF80F237B600023BB600023AE
:1002DC00FB6000233B6100237B613B1D0021184622
:1002EC0000F0E4FE0346002B01D000F039F800BF0B
:1002FC004037BD4680BD000080B586B000AF07F129
:10030C00080300221A605A609A60DA60124B9B69EB
:10031C00114A43F0040393610F4B9B6903F00403F0
:10032C007B607B6800224FF6F0710C4800F026FCD5
:10033C004FF6F073BB600123FB6000233B6102238B
:10034C007B6107F108031946044800F09DFA00BFD1
:10035C001837BD4680BD00BF0010024000080140A8
:10036C0080B400AF72B600BFFEE7000080B485B069
:10037C0000AF154B9B69144A43F001039361124B78
:10038C009B6903F00103BB60BB680F4BDB690E4A32
:10039C0043F08053D3610C4BDB6903F080537B60DB
:1003AC007B680A4B5B68FB60FB6823F0E063FB60D7
:1003BC00FB6843F08063FB60044AFB68536000BF3A
:1003CC001437BD4680BC704700100240000001404D
:1003DC0080B400AFFEE780B400AFFEE780B400AF9E
:1003EC00FEE780B400AFFEE780B400AFFEE780B458
:1003FC0000AF00BFBD4680BC704780B400AF00BFEB
:10040C00BD4680BC704780B400AF00BFBD4680BC09
:10041C00704780B500AF00F013F900BF80BD80B508
:10042C0086B000AFF860B9607A6000237B610AE0A7
:10043C00AFF300800146BB685A1CBA60CAB21A708E
:10044C007B6901337B617A697B689A42F0DB7B685C
:10045C0018461837BD4680BD80B586B000AFF86031
:10046C00B9607A6000237B6109E0BB685A1CBA60F2
:10047C001B781846AFF300807B6901337B617A6986
:10048C007B689A42F1DB7B6818461837BD4680BD05
:10049C0080B483B000AF78604FF0FF3318460C3750
:1004AC00BD4680BC704780B483B000AF78603960C3
:1004BC003B684FF400525A60002318460C37BD4677
:1004CC0080BC704780B483B000AF786001231846BD
:1004DC000C37BD4680BC704780B485B000AFF86067
:1004EC00B9607A60002318461437BD4680BC70474B
:1004FC0080B586B000AF7860144A154BD31A7B6177
:10050C007B693B61134B1B68002B02D1114B124AC8
:10051C001A60104B1A687B6813443A699A4207D2E6
:10052C0000F020FF03460C221A604FF0FF3309E065
:10053C00084B1B68FB60074B1A687B681344054A21
:10054C001360FB6818461837BD4680BD0028002094
:10055C00000400008C000020B000002080B400AF2C
:10056C0000BFBD4680BC7047FFF7F8FF0B480C4935
:10057C000C4A002302E0D458C4500433C4188C42F3
:10058C00F9D3094A094C002301E013600432A2425A
:10059C00FBD300F0EDFEFFF74FFE7047000000208C
:1005AC00700000206029000870000020AC000020C2
:1005BC00FEE7000080B500AF084B1B68074A43F00C
:1005CC0010031360032000F02BF90F2000F008F843
:1005DC00FFF7CCFE0023184680BD00BF0020024070
:1005EC0080B582B000AF7860124B1A68124B1B7842
:1005FC0019464FF47A73B3FBF1F3B2FBF3F31846DD
:10060C0000F035F90346002B01D001230EE07B6886
:10061C000F2B0AD8002279684FF0FF3000F00BF94D
:10062C00064A7B681360002300E001231846083754
:10063C00BD4680BD00000020080000200400002002
:10064C0080B400AF054B1B781A46054B1B6813444E
:10065C00034A136000BFBD4680BC704708000020F1
:10066C009800002080B400AF024B1B681846BD46B2
:10067C0080BC70479800002080B584B000AF7860D3
:10068C00FFF7F0FFB8607B68FB60FB68B3F1FF3FDE
:10069C0005D00A4B1B781A46FB681344FB6000BF5D
:1006AC00FFF7E0FF0246BB68D31AFA689A42F7D804
:1006BC0000BF00BF1037BD4680BD00BF0800002042
:1006CC0080B485B000AF78607B6803F00703FB60F3
:1006DC000C4BDB68BB60BA684FF6FF031340BB6082
:1006EC00FB681A02BB68134343F0BF6343F4003347
:1006FC00BB60044ABB68D36000BF1437BD4680BCE6
:10070C00704700BF00ED00E080B400AF044BDB6825
:10071C001B0A03F007031846BD4680BC704700BF98
:10072C0000ED00E080B483B000AF03463960FB718C
:10073C0097F90730002B0ADB3B68DAB20C4997F9C2
:10074C0007301201D2B20B4483F800230AE03B6855
:10075C00DAB20849FB7903F00F03043B1201D2B261
:10076C000B441A7600BF0C37BD4680BC704700BFE7
:10077C0000E100E000ED00E080B489B000AFF8606B
:10078C00B9607A60FB6803F00703FB61FB69C3F196
:10079C000703042B28BF0423BB61FB690433062B1E
:1007AC0002D9FB69033B00E000237B614FF0FF3271
:1007BC00BB6902FA03F3DA43BB681A407B699A40BF
:1007CC004FF0FF317B6901FA03F3D9437B680B408F
:1007DC00134318462437BD4680BC704780B582B0A1
:1007EC0000AF78607B68013BB3F1807F01D30123BC
:1007FC000FE00A4A7B68013B53600F214FF0FF303A
:10080C00FFF790FF054B00229A60044B07221A60F9
:10081C00002318460837BD4680BD00BF10E000E03D
:10082C0080B582B000AF78607868FFF749FF00BFF1
:10083C000837BD4680BD80B586B000AF0346B960B1
:10084C007A60FB7300237B61FFF75EFF78617A6847
:10085C00B9687869FFF790FF024697F90F30114697
:10086C001846FFF75FFF00BF1837BD4680BD80B547
:10087C0082B000AF78607868FFF7B0FF0346184687
:10088C000837BD4680BD000080B48BB000AF7860E7
:10089C00396000237B6200233B6248E101227B6AC2
:1008AC0002FA03F3FB613B681B68FA691340BB61F6
:1008BC00BA69FB699A4240F037813B685B68A34A8E
:1008CC0093425ED0A14A934275D8A14A934258D024
:1008DC009F4A93426FD89F4A934252D09D4A93426B
:1008EC0069D89D4A93424CD09B4A934263D89B4A09
:1008FC00934246D0994A93425DD8122B2AD8122B98
:10090C0059D801A252F823F08F0900086909000890
:10091C007B090008BD090008C3090008C3090008C9
:10092C00C3090008C3090008C3090008C30900086B
:10093C00C3090008C3090008C3090008C30900085B
:10094C00C3090008C3090008C3090008710900089D
:10095C0085090008824A934213D02CE03B68DB687F
:10096C003B6229E03B68DB6804333B6224E03B6874
:10097C00DB6808333B621FE03B68DB680C333B628F
:10098C001AE03B689B68002B02D104233B6213E006
:10099C003B689B68012B05D108233B627B68FA6995
:1009AC001A6109E008233B627B68FA695A6103E02B
:1009BC0000233B6200E000BFBB69FF2B01D87B68C2
:1009CC0001E07B6804337B61BB69FF2B02D87B6A37
:1009DC009B0002E07B6A083B9B003B617B691A68C9
:1009EC000F213B6901FA03F3DB431A40396A3B6977
:1009FC0001FA03F31A437B691A603B685B6803F0E6
:100A0C008053002B00F09080564B9B69554A43F065
:100A1C0001039361534B9B6903F00103BB60BB68FB
:100A2C00514A7B6A9B08023352F82330FB607B6A85
:100A3C0003F003039B000F2202FA03F3DB43FA6873
:100A4C001340FB607B68494A93420DD07B68484A4F
:100A5C00934207D07B68474A934201D1022304E0BA
:100A6C00032302E0012300E000237A6A02F0030270
:100A7C0092009340FA681343FB603B497B6A9B08E6
:100A8C000233FA6841F823203B685B6803F4801357
:100A9C00002B06D0384B9A683749BB6913438B60DF
:100AAC0006E0354B9A68BB69DB43334913408B60D6
:100ABC003B685B6803F40013002B06D02E4BDA68FE
:100ACC002D49BB691343CB6006E02B4BDA68BB693D
:100ADC00DB4329491340CB603B685B6803F400336C
:100AEC00002B06D0244B5A682349BB6913434B6037
:100AFC0006E0214B5A68BB69DB431F4913404B602E
:100B0C003B685B6803F48033002B06D01A4B1A68E1
:100B1C001949BB6913430B6006E0174B1A68BB6994
:100B2C00DB43154913400B607B6A01337B623B68E6
:100B3C001A687B6A22FA03F3002B7FF4AFAE00BF76
:100B4C0000BF2C37BD4680BC704700BF0000321080
:100B5C0000003110000022100000211000001210C3
:100B6C00000011100010024000000140000801407C
:100B7C00000C0140001001400004014080B483B01F
:100B8C0000AF78600B467B8013467B707B78002B24
:100B9C0003D07A887B681A6103E07B881A047B682F
:100BAC001A6100BF0C37BD4680BC704780B586B05B
:100BBC0000AF78607B68002B01D101236CE27B686D
:100BCC001B6803F00103002B00F08780924B5B68DD
:100BDC0003F00C03042B0CD08F4B5B6803F00C035D
:100BEC00082B12D18C4B5B6803F48033B3F5803F38
:100BFC000BD1894B1B6803F40033002B6CD07B6842
:100C0C005B68002B68D1012346E27B685B68B3F517
:100C1C00803F06D1804B1B687F4A43F480331360BE
:100C2C002EE07B685B68002B0CD17B4B1B687A4AEF
:100C3C0023F480331360784B1B68774A23F48023AA
:100C4C0013601DE07B685B68B3F5A02F0CD1724B71
:100C5C001B68714A43F4802313606F4B1B686E4A08
:100C6C0043F4803313600BE06B4B1B686A4A23F42C
:100C7C0080331360684B1B68674A23F4802313602E
:100C8C007B685B68002B13D0FFF7ECFC386108E045
:100C9C00FFF7E8FC02463B69D31A642B01D9032306
:100CAC00FAE15D4B1B6803F40033002BF0D014E029
:100CBC00FFF7D8FC386108E0FFF7D4FC02463B692B
:100CCC00D31A642B01D90323E6E1534B1B6803F4BD
:100CDC000033002BF0D100E000BF7B681B6803F0F1
:100CEC000203002B63D04C4B5B6803F00C03002B0E
:100CFC000BD0494B5B6803F00C03082B1CD1464B03
:100D0C005B6803F48033002B16D1434B1B6803F054
:100D1C000203002B05D07B681B69012B01D001233A
:100D2C00BAE13D4B1B6823F0F8027B685B69DB0082
:100D3C00394913430B603AE07B681B69002B20D0C8
:100D4C00364B01221A60FFF78DFC386108E0FFF783
:100D5C0089FC02463B69D31A022B01D903239BE180
:100D6C002D4B1B6803F00203002BF0D02A4B1B68A1
:100D7C0023F0F8027B685B69DB00274913430B60A7
:100D8C0015E0264B00221A60FFF76CFC386108E076
:100D9C00FFF768FC02463B69D31A022B01D90323E7
:100DAC007AE11D4B1B6803F00203002BF0D17B682A
:100DBC001B6803F00803002B3AD07B689B69002B5F
:100DCC0019D0174B01221A60FFF74CFC386108E070
:100DDC00FFF748FC02463B69D31A022B01D90323C7
:100DEC005AE10D4B5B6A03F00203002BF0D001209B
:100DFC0000F09AFA1CE00A4B00221A60FFF732FC52
:100E0C0038610FE0FFF72EFC02463B69D31A022B28
:100E1C0008D9032340E100BF001002400000424209
:100E2C00800442429E4B5B6A03F00203002BE9D123
:100E3C007B681B6803F00403002B00F0A6800023E2
:100E4C00FB75974BDB6903F08053002B0DD1944B52
:100E5C00DB69934A43F08053D361914BDB6903F018
:100E6C008053BB60BB680123FB758E4B1B6803F47E
:100E7C008073002B18D18B4B1B688A4A43F4807308
:100E8C001360FFF7EFFB386108E0FFF7EBFB02465E
:100E9C003B69D31A642B01D90323FDE0814B1B68FA
:100EAC0003F48073002BF0D07B68DB68012B06D138
:100EBC007B4B1B6A7A4A43F0010313622DE07B687B
:100ECC00DB68002B0CD1764B1B6A754A23F00103AF
:100EDC001362734B1B6A724A23F0040313621CE007
:100EEC007B68DB68052B0CD16D4B1B6A6C4A43F09D
:100EFC00040313626A4B1B6A694A43F001031362D1
:100F0C000BE0674B1B6A664A23F001031362644BC8
:100F1C001B6A634A23F0040313627B68DB68002BB3
:100F2C0015D0FFF79FFB38610AE0FFF79BFB0246E9
:100F3C003B69D31A41F28832934201D90323ABE0C7
:100F4C00574B1B6A03F00203002BEED014E0FFF7A3
:100F5C0089FB38610AE0FFF785FB02463B69D31A2F
:100F6C0041F28832934201D9032395E04C4B1B6A22
:100F7C0003F00203002BEED1FB7D012B05D1484B76
:100F8C00DB69474A23F08053D3617B68DB69002B14
:100F9C0000F08180424B5B6803F00C03082B61D09E
:100FAC007B68DB69022B46D13F4B00221A60FFF7AE
:100FBC0059FB386108E0FFF755FB02463B69D31A31
:100FCC00022B01D9032367E0354B1B6803F0007338
:100FDC00002BF0D17B681B6AB3F5803F08D1304BF6
:100FEC005B6823F400327B689B682D4913434B608C
:100FFC002B4B5B6823F474127B68196A7B685B6A01
:10100C000B43274913434B60274B01221A60FFF710
:10101C0029FB386108E0FFF725FB02463B69D31A30
:10102C00022B01D9032337E01D4B1B6803F000731F
:10103C00002BF0D02FE01C4B00221A60FFF712FBA4
:10104C00386108E0FFF70EFB02463B69D31A022B0E
:10105C0001D9032320E0124B1B6803F00073002B13
:10106C00F0D118E07B68DB69012B01D1012313E07F
:10107C000B4B5B68FB60FB6803F480327B681B6A7C
:10108C009A4206D1FB6803F470127B685B6A9A4241
:10109C0001D0012300E0002318461837BD4680BD5F
:1010AC0000100240007000406000424280B584B0E5
:1010BC0000AF786039607B68002B01D10123D0E050
:1010CC006A4B1B6803F007033A689A4210D9674BC6
:1010DC001B6823F0070265493B6813430B60634BA5
:1010EC001B6803F007033A689A4201D00123B8E069
:1010FC007B681B6803F00203002B20D07B681B6805
:10110C0003F00403002B05D0594B5B68584A43F499
:10111C00E06353607B681B6803F00803002B05D069
:10112C00534B5B68524A43F460535360504B5B68BB
:10113C0023F0F0027B689B684D4913434B607B683E
:10114C001B6803F00103002B40D07B685B68012B0C
:10115C0007D1474B1B6803F40033002B15D1012337
:10116C007FE07B685B68022B07D1414B1B6803F067
:10117C000073002B09D1012373E03D4B1B6803F076
:10118C000203002B01D101236BE0394B5B6823F088
:10119C0003027B685B68364913434B60FFF762FAC6
:1011AC00F8600AE0FFF75EFA0246FB68D31A41F2D8
:1011BC008832934201D9032353E02D4B5B6803F033
:1011CC000C027B685B689B009A42EBD1274B1B6837
:1011DC0003F007033A689A4210D2244B1B6823F0A1
:1011EC00070222493B6813430B60204B1B6803F03A
:1011FC0007033A689A4201D0012332E07B681B68EE
:10120C0003F00403002B08D0194B5B6823F4E06255
:10121C007B68DB68164913434B607B681B6803F0E3
:10122C000803002B09D0124B5B6823F460527B68D7
:10123C001B69DB000E4913434B6000F021F802469A
:10124C000B4B5B681B0903F00F030A49CB5C22FABA
:10125C0003F3094A1360094B1B681846FFF7C0F9E2
:10126C00002318461037BD4680BD00BF0020024049
:10127C0000100240B02700080000002004000020ED
:10128C0080B487B000AF0023FB600023BB60002359
:10129C007B6100237B6000233B611E4B5B68FB6022
:1012AC00FB6803F00C03042B02D0082B03D027E0BF
:1012BC00194B3B6127E0FB689B0C03F00F03174AAB
:1012CC00D35C7B60FB6803F48033002B10D0114B94
:1012DC005B685B0C03F00103114AD35CBB607B6859
:1012EC000D4A02FB03F2BB68B2FBF3F37B6104E033
:1012FC007B680C4A02FB03F37B617B693B6102E078
:10130C00054B3B6100BF3B6918461C37BD4680BC92
:10131C00704700BF0010024000127A00C02700087E
:10132C00D027000800093D0080B485B000AF78607C
:10133C000A4B1B680A4AA2FB03235B0A7A6802FB6E
:10134C0003F3FB6000BFFB685A1EFA60002BF9D157
:10135C0000BF00BF1437BD4680BC704700000020A2
:10136C00D34D6210014B1868704700BF0C00002071
:10137C0070B500260C4D0D4C641BA410A64209D16F
:10138C0001F0FCF900260A4D0A4C641BA410A6427D
:10139C0005D170BD55F8043B98470136EEE755F87A
:1013AC00043B98470136F2E75829000858290008F1
:1013BC00582900085C29000803460244934200D1D6
:1013CC00704703F8011BF9E70FB40A4B13B51C68FF
:1013DC0024B1A36913B9204600F066F805AB20468A
:1013EC00049A6168019300F01BFB02B0BDE8104049
:1013FC0004B070470C000020002310B50446C0E96F
:10140C000033C0E90433836081814366C281836108
:10141C00194608225C30FFF7CFFF054B246263624C
:10142C00044BA362044BE362044B236310BD00BF67
:10143C00D11E0008F31E00082B1F00084F1F0008C8
:10144C00014900F0CCB800BF5524000870B56825E0
:10145C004A1E55430E4605F1740100F0E3F80446AC
:10146C0040B10021C0E900160C30A06005F1680203
:10147C00FFF7A2FF204670BD014800F0D0B800BFB6
:10148C00A4000020014800F0CBB800BFA40000204D
:10149C00014800F0C4B800BF9F000020014800F0D4
:1014AC00BFB800BF9F00002010B50446FFF7F0FF47
:1014BC00A3691BB1BDE81040FFF7F0BFC4E91233BC
:1014CC002365134B134A1B68A262A34208BF012376
:1014DC00204608BFA36100F01FF86060204600F0B2
:1014EC001BF8A060204600F017F800220421E060F1
:1014FC006068FFF781FF01220921A068FFF77CFFDC
:10150C0002221221E068FFF777FF0123A361D1E7E4
:10151C00D42700084D140008F8B50746FFF7ACFFB8
:10152C001E4B1E68B36913B93046FFF7BDFF483632
:10153C00D6E90134013B03D533680BB33668F7E7C2
:10154C00B4F90C50D5B9164B04F15800E36065663C
:10155C0000F064F8FFF796FF08222946C4E901550C
:10156C00C4E904552560A56104F15C00FFF724FF74
:10157C00C4E90D55C4E912552046F8BD6834D9E7C5
:10158C0004213846FFF762FF044630600028D5D1AD
:10159C00FFF778FF0C233B60EEE700BFD427000871
:1015AC000100FFFF2DE9F0410F46002600F1480431
:1015BC00D4E90185B8F1010805D52468002CF7D1D0
:1015CC003046BDE8F081AB89012B06D9B5F90E3058
:1015DC00013302D02846B84706436835EAE72DE9BF
:1015EC00F84306468846002700F14804D4E90195E3
:1015FC00B9F1010905D52468002CF7D13846BDE8AE
:10160C00F883AB89012B07D9B5F90E30013303D020
:10161C0029463046C04707436835E9E770477047AD
:10162C0070470000F8B5CD1C25F0030508350C2DCE
:10163C0038BF0C25002D064601DBA94203D90C232B
:10164C0033600020F8BD00F0DFFF21490A68144622
:10165C009CB9204F3B6823B92146304600F0E8FB8B
:10166C0038602946304600F0E3FB431C23D10C23A1
:10167C003046336000F0CEFFE3E723685B1B17D4E2
:10168C000B2B03D923601C44256004E06368A24241
:10169C000CBF0B605360304600F0BCFF04F10B0034
:1016AC00231D20F00700C21ACCD01B1AA350C9E787
:1016BC0022466468CCE7C41C24F00304A042E3D0A7
:1016CC00211A304600F0B4FB0130DDD1CFE700BF6A
:1016DC0090000020940000202DE9F04F1D464B6E29
:1016EC000646DF070C469246ADF5237D05D48B8963
:1016FC00980502D4886DFFF792FF0023CDE944339F
:10170C00AE4B0DF10408A093AD4BAE4FDFF8B89281
:10171C00CDF81881A19300959AF800B0BBF1000F99
:10172C0000F070811BF807300AF1010513F0080373
:10173C0019D06368002B0FDD23681A78BA5C110787
:10174C0001D4AA46E8E7459A013301324592626812
:10175C002360013A6260ECE721463046A19B984732
:10176C000028E9D0EDE7BBF1250F40F086804193CE
:10177C0043939AF801300A222A2B02BF10230AF154
:10178C0002054193AA461AF8011BA1F13003092B5B
:10179C001ED903228C4800F01BFF40B10123554693
:1017AC00A0EB090003FA00F0419B1843419015F897
:1017BC00013B782B07D8572B11D8252B5DD057D848
:1017CC00002B00F0D680032347930A2342938BE02F
:1017DC00439B554602FB0313303B4393D2E7A3F1E3
:1017EC005802202AEFD801A151F822F0DF18000886
:1017FC00D3170008D31700083D190008D3170008A9
:10180C00D3170008D3170008D3170008D317000804
:10181C00D3170008D317000853190008291900081A
:10182C00831800088318000883180008D3170008D1
:10183C002D190008D3170008D3170008D317000878
:10184C00D31700086319000835190008D7180008C9
:10185C00D3170008D31700085F190008D317000826
:10186C0029190008D3170008D3170008DF1800083F
:10187C00453B022BA7D8052335E06368002B0DDD13
:10188C0023681A785A4540F0BD80013362682360A2
:10189C00459B013A01336260459352E7214630463D
:1018AC00A19B98470028EBD0636EDA0740F1A28029
:1018BC004498002866D0A38913F0400F18BF4FF04E
:1018CC00FF300DF5237DBDE8F08F419A42F02002E8
:1018DC004192419A42F40072419210226F2B34BF14
:1018EC0003230423429247936368002B4DDD419BF5
:1018FC005B0604D423681A78BA5C10074CD4479B57
:10190C00022B63DC6B462246304641A900F0B0F84E
:10191C00012877D002287FF414AFC5E70A22DDE74F
:10192C00002342930323DEE7082342930423DAE7E0
:10193C002946404600F08CFA419B054643F0400393
:10194C0041930123CFE7419B43F040034193002394
:10195C00C9E70223C7E74198C3063FF5F2AE009BE7
:10196C00459A191D00911B68C0074CBF1A801A605C
:10197C00E7E6636ED80705D4A389990502D4A06D58
:10198C00FFF74EFE4FF0FF309BE721463046A19B00
:10199C0098470028ABD087E7459A01324592626898
:1019AC00013A002A626002DD01332360A2E721467E
:1019BC003046A19B984700289CD075E7D52100089C
:1019CC00251D00085828000838280008042B06DCC0
:1019DC006B462246304641A900F0A2F898E70F4B1F
:1019EC00002B3FF4AEAE6B462246304641A9AFF316
:1019FC0000808DE7A38999053FF55AAFA06DFFF7DD
:101A0C000FFE55E7636EDA0705D4A3899B0502D454
:101A1C00A06DFFF705FE449853E700BF00000000DF
:101A2C002DE9F0410C4616461F46054618B1836950
:101A3C000BB9FFF739FD0B4B9C4208D16C683B4648
:101A4C00324621462846BDE8F041FFF745BE064B1D
:101A5C009C4201D1AC68F2E7044B9C4208BFEC6895
:101A6C00EDE700BFF827000818280008D827000861
:101A7C002DE9F84315468A6880460C4632B98A69C6
:101A8C00002A0CBF01224FF0FF328A600027226827
:101A9C00DFF88890D1065FBF1A68111D19601668AF
:101AAC00A06988B1012807D12B681A7863699B5CFF
:101ABC0053B927BBBDE8F883022820D12B681B78CB
:101ACC0013F809301B071AD423680137DA065EBFF6
:101ADC002B681B7806F8013B2A686B6801322A6078
:101AEC00A268013B013A6B60A26042B1002BD7DCCB
:101AFC0029464046D4F8803198470028D0D0236836
:101B0C0013F0100305D1E2680132E260A26902B160
:101B1C003370236900201F442761CBE75828000845
:101B2C002DE9F04F0C469846724B87B0824616460C
:101B3C0093E8070003AB83E807006F4BA1696F4A7A
:101B4C002746032918BF1A46A36801925A1EB2F5FC
:101B5C00AE7F81BF6FF4AE7503EB050940F25D13E8
:101B6C00A36057F81C3B98BF4FF000093D464FF05F
:101B7C00000B43F450632360316803AB02220978F5
:101B8C0053F82B0000F024FD28B3BBF1010F59D101
:101B9C0062682AB908232268636042F400722260EA
:101BAC00226822F4A0622260A268511EA16092B148
:101BBC003268511C3160127805F8012B7268013AB9
:101BCC00002A726007DC31465046D4F880219047D9
:101BDC00002840F085800BF1010BBBF1030FCBD13A
:101BEC0063680BB90A236360636845496069C91A65
:101BFC0000F02EF94FF0000BA3682268002B3DD0AB
:101C0C003168606991F800C010F80C00002835D0DC
:101C1C00BCF1300F24D1100522D50BF1010BB9F119
:101C2C00000F03D0013309F1FF39A3607368013B46
:101C3C00002B73601BDD336801333360A368013BF9
:101C4C00A360D9E7BBF1020FAED1226802F4C061E8
:101C5C00B1F5007FBFD1102342F480726360A2E71C
:101C6C0022F4106222600B7805F8013BDEE7314666
:101C7C005046D4F8803198470028DFD02368D90526
:101C8C000DD5BD4209D915F8011C32465046D4F881
:101C9C007C3105F1FF3998474D46BD4228D022686A
:101CAC0012F0100213D12A70394663685046019E17
:101CBC00B047D8F8003021681A1DC8F8002011F080
:101CCC00200F1B680FD01860E3680133E36000201D
:101CDC00ED1BAB4425695D44256107B0BDE8F08F71
:101CEC004FF0000BCAE7CA074CBF18801860EBE72F
:101CFC000120F2E7A42700086121000865200008F4
:101D0C0055280008838903F00903092B01D100F041
:101D1C00D7BB002070470000F8B50C46054618B13B
:101D2C0083690BB9FFF7C0FB3C4B9C420AD16C6832
:101D3C0000236360A389B4F90C209E060CD54FF0E8
:101D4C00FF3067E0364B9C4201D1AC68F0E7354B75
:101D5C009C4208BFEC68EBE7580749D4D90605D478
:101D6C0009232B6042F04003A381E8E71A070BD547
:101D7C002146284600F068FB0028E0D1A389A0602A
:101D8C0023F00803A381A061A38943F00403A3817A
:101D9C0023691BB92146284600F0DAFBA689B4F961
:101DAC000C70B3070FD00123A3811F4B1F49186878
:101DBC0006F00906FFF7F6FB092EA78103D1214691
:101DCC00284600F0BBFA22692846666A6369216AD4
:101DDC002260B047002860601DDC18BF0022B4F9F7
:101DEC000C3016BF626043F0200343F04003BBE7A6
:101DFC00616B0029CCD004F14403994202D02846EF
:101E0C0000F00EFC0020236C60636360002BBFD0DD
:101E1C00E36B2360F8BD0020FCE700BFF827000847
:101E2C0018280008D8270008D4270008111D00081E
:101E3C0038B50023054D044608462B60FEF758FBC9
:101E4C00431C02D12B6803B1236038BDA8000020CD
:101E5C0070B50B7804465E2B13BF002201224B7821
:101E6C00481C08BF881C04F1FF05611E01F8012FF6
:101E7C00A942FBD10BB9013870BD82F00101E154CC
:101E8C00421C12F8015C10462D2D02F1FF3606D0D3
:101E9C005D2DF1D00DB93046EEE72B46EFE7167805
:101EAC005D2EFAD0B342F8DC18460130864221543C
:101EBC00FBDCD8433044B342A8BF00205D1C2B1878
:101ECC000232DEE710B50C46B1F90E1000F01AFC28
:101EDC000028ABBF636DA3891B1823F48053ACBFE0
:101EEC006365A38110BD2DE9F0411F468B89054622
:101EFC00DB050C46164605D502230022B1F90E105F
:101F0C0000F0F0FAA389324623F48053A3812846CB
:101F1C003B46B4F90E10BDE8F04100F0EDB910B538
:101F2C000C46B1F90E1000F0DDFA431CA38915BF65
:101F3C00606523F4805343F48053A38118BFA381BD
:101F4C0010BDB1F90E1000F0E9B90000012B2DE91C
:101F5C00F047864601D0242B06D9FFF703FA162347
:101F6C0003600020BDE8F0878C463A4E60461CF8B2
:101F7C00014BA55D15F00805F8D12D2C33D14FF090
:101F8C0001089CF8004000F1020C002B5DD0102BD6
:101F9C000CD1302C0AD19CF8000000F0DF0058283E
:101FAC004ED110239CF801400CF1020C002508F1D5
:101FBC000047013FB7FBF3F9284603FB197AA4F15C
:101FCC003006092E18D83446A34224DD002D1FDB21
:101FDC0081451DD301D1A2451ADB012500FB03402D
:101FEC001CF8014BEBE72B2C08BF9CF80040A846D3
:101FFC0008BF00F1020CC8E7A4F14106192E01D864
:10200C00373CE1E7A4F16106192E04D8573CDBE715
:10201C004FF0FF35E4E7002D08DA22233846CEF8DE
:10202C000030002A9ED00CF1FF3107E0B8F1000F10
:10203C0000D04042002A95D0002DF4D1116091E7D8
:10204C003024002BB2D10823B0E7302CA3D00A23C4
:10205C00ACE700BF58280008FFF778BF2DE9F04324
:10206C008C4686463A4E60461CF8014BA55D15F031
:10207C000805F8D12D2C34D14FF001089CF8004004
:10208C0000F1020C002B5ED0102B0CD1302C0AD19D
:10209C009CF8000000F0DF0058284FD110239CF86A
:1020AC0001400CF1020C4FF0FF37B7FBF3F70025A2
:1020BC0003FB07F928466FEA0909A4F13006092E3B
:1020CC0018D83446A34224DD002D1FDB87421DD3D4
:1020DC0001D1A1451ADB012500FB03401CF8014B83
:1020EC00EBE72B2C08BF9CF80040A84608BF00F17A
:1020FC00020CC7E7A4F14106192E01D8373CE1E7E1
:10210C00A4F16106192E04D8573CDBE74FF0FF35DC
:10211C00E4E7002D07DA22234FF0FF30CEF8003031
:10212C0042B9BDE8F083B8F1000F00D04042002A5C
:10213C00F7D00DB10CF1FF311160F2E73024002B18
:10214C00B1D10823AFE7302CA2D00A23ABE700BFF4
:10215C0058280008FFF782BF2DE9F0410C46496B67
:10216C0004F1440399421BD14FF48061FFF75AFAF2
:10217C0018B94FF0FF30BDE8F0814FF48063A363D2
:10218C0094F84630606380F8FF3394F8453000F2E1
:10219C00FD30437094F84430037020600020EAE76F
:1021AC00A66B77003A4600F087FA05460028E0D087
:1021BC0000EB060801463246404600F017FAC4E927
:1021CC000D57C4F80080E9E770B514464A1C064662
:1021DC000D4603D14FF0FF35284670BD18B1836909
:1021EC000BB9FFF761F9414B9C421DD17468636ECA
:1021FC00DB0705D4A389980502D4A06DFFF70FFA6D
:10220C00B4F90C3023F020035907A3819AB22DD4D2
:10221C00D30613D4636EDD07DCD412F4007FD9D15E
:10222C00A06DFFF7FDF9D5E7314B9C4201D1B468A5
:10223C00DDE7304B9C4208BFF468D8E7100711D596
:10224C002146304600F000F930B1636ED907C1D495
:10225C00A38913F4007FE2E7A389A06023F00803AD
:10226C00A381A061A38943F00403A381636B62681B
:10227C00EDB2D3B1A36B934205DC21463046FFF798
:10228C006BFF0028E1D123685A1E226003F8015C21
:10229C00636801336360636EDA079DD4A3899B0581
:1022AC009AD4A06DFFF7BCF996E7616E206923689C
:1022BC0001F0010160B198420AD213F8010CA84256
:1022CC0006D1013B013223606260002984D1E5E72D
:1022DC00C4E90F3204F1440363630323A36323466D
:1022EC0003F8465F236001236360EEE7F8270008DC
:1022FC0018280008D827000838B5044608461146A7
:10230C000022054D2A601A46FEF7A6F8431C02D19E
:10231C002B6803B1236038BDA800002038B500231A
:10232C00054D044608462B60FEF7B2F8431C02D15B
:10233C002B6803B1236038BDA80000208A892DE9E1
:10234C00F041054610070C4658D44B68002B05DCB1
:10235C000B6C002B02DC0020BDE8F081E66A002E3D
:10236C00F9D0002312F480522F682B6032D0606DAC
:10237C00A3895A0705D56368C01A636B0BB1236C2C
:10238C00C01A00230246E66A2846216AB047431C5D
:10239C00A38906D129681D292CD82A4ACA40D607F8
:1023AC0028D5002262602269D904226004D5421C1F
:1023BC0001D12B6803B96065616B2F600029CAD00D
:1023CC0004F14403994202D0284600F029F9002078
:1023DC006063C1E7216A01232846B047411CC7D17D
:1023EC002B68002BC4D01D2B01D0162B01D12F60D4
:1023FC00B1E7A38943F04003A381ADE70F69002F38
:10240C00A9D0930718BF00230E6808BF4B69A6EB31
:10241C0007080F608B60B8F1000F9CDD43463A460D
:10242C002846216AA66AB047002806DCA3894FF02B
:10243C00FF3043F04003A3818EE70744A8EB00086C
:10244C00E9E700BF0100402038B50B6905460C4692
:10245C0013B90025284638BD18B183690BB9FFF7AD
:10246C0023F8144B9C421BD16C68B4F90C30002B34
:10247C00EFD0626ED00704D4990502D4A06DFFF79B
:10248C00CEF828462146FFF759FF636E0546DA075A
:10249C00E0D4A3899B05DDD4A06DFFF7C1F8D9E783
:1024AC00054B9C4201D1AC68DFE7044B9C4208BF52
:1024BC00EC68DAE7F827000818280008D827000885
:1024CC00014620B9044B05491868FFF788B8044B3E
:1024DC001868FFF7B9BF00BFD427000855240008BF
:1024EC000C00002038B50446084611460022054D64
:1024FC002A601A46FDF7F0FF431C02D12B6803B18A
:10250C00236038BDA800002070B50E46B1F90E103E
:10251C00144600291D4696B007DA00232B60B389B8
:10252C001A0610D44FF480630EE06A4600F0FCF8F3
:10253C000028F2DB019A02F47042A2F500535A42D1
:10254C005A412A60EEE740230020236016B070BD8C
:10255C008B8973B59D0706460C4607D504F14703D6
:10256C00236023610123636102B070BD6A4601AB35
:10257C00FFF7CAFF009905463046FFF753F848B9F4
:10258C00B4F90C309A05EFD423F0030343F00203A3
:10259C00A381E3E70D4BB362A389206043F0800372
:1025AC00A381009B20616361019B5BB13046B4F950
:1025BC000E1000F0CBF828B1A38923F0030343F0ED
:1025CC000103A381A0890543A581CDE74D14000823
:1025DC00034610B5C9B202449342184601D10020FB
:1025EC0003E0047801338C42F6D110BD0A449142C9
:1025FC0000F1FF3300D1704710B511F8014B914237
:10260C0003F8014FF9D110BD0148FFF708B800BF1E
:10261C00A00000200148FFF703B800BFA000002075
:10262C0038B50546002943D051F8043C0C1F002B4B
:10263C00B8BFE418FFF7E8FF1E4A1368104633B919
:10264C00636014602846BDE83840FFF7E3BFA3423F
:10265C000AD921686218934201BF1A685B68521844
:10266C00226063600460EDE71A465B680BB1A3421D
:10267C00FAD911685018A0420BD1206801445018A7
:10268C0083421160DED118685B68014411605360AD
:10269C00D8E702D90C232B60D4E7206821188B4291
:1026AC0001BF19685B680918216063605460C9E751
:1026BC0038BD00BF90000020F8B5074614460E4602
:1026CC0021B91146BDE8F840FEF7ACBF22B9FFF7BF
:1026DC00A7FF25462846F8BD00F048F8A0420FD2C7
:1026EC0021463846FEF79EFF05460028F2D03146BB
:1026FC002246FFF77BFF31463846FFF791FFE9E7AB
:10270C003546E7E738B50446084611460022054D24
:10271C002A601A46FDF783FE431C02D12B6803B1D5
:10272C00236038BDA800002038B50023064D0446B0
:10273C00084611462B60FDF7B6FE431C02D12B68F0
:10274C0003B1236038BD00BFA800002038B50023BA
:10275C00054D044608462B60FDF7B4FE431C02D120
:10276C002B6803B1236038BDA800002051F8043C4D
:10277C00181F002BBCBF0B58C0187047F8B500BF12
:10278C00F8BC08BC9E467047F8B500BFF8BC08BC46
:04279C009E4670479E
:1027A000256400003C2800083F2800084228000853
:1027B00000000000000000000102030406070809F1
:1027C00002030405060708090A0B0C0D0E0F101072
:1027D00001020000100000200000000000000000C6
:1027E00000000000000000000000000000000000E9
:1027F00000000000000000000000000000000000D9
:1028000000000000000000000000000000000000C8
:1028100000000000000000000000000000000000B8
:1028200000000000000000000000000000000000A8
:102830000000000000000000686C4C002B2D0030F0
:102840003000785800412D46612D663839303132DC
:1028500033343536375D0000202020202020202012
:102860002028282828282020202020202020202040
:102870002020202020202020881010101010101060
:1028800010101010101010100404040404040404A8
:102890000404101010101010104141414141410139
:1028A0000101010101010101010101010101010118
:1028B0000101011010101010104242424242420227
:1028C00002020202020202020202020202020202E8
:1028D0000202021010101020000000000000000092
:1028E00000000000000000000000000000000000E8
:1028F00000000000000000000000000000000000D8
:1029000000000000000000000000000000000000C7
:1029100000000000000000000000000000000000B7
:1029200000000000000000000000000000000000A7
:102930000000000000000000000000000000000097
:102940000000000000000000000000000000000087
:0829500000000000000000007F
:042958003101000841
:04295C000D01000861
:1029600000127A001000000001000000100000209A
:1029700000000000F827000818280008D8270008E1
:102980000000000000000000000000000000000047
:102990000000000000000000000000000000000037
:1029A0000000000000000000000000000000000027
:1029B0000000000000000000000000000000000017
:1029C0000000000000000000000000000000000007
:040000050800057575
:00000001FF
